:020000040000FA
:10000000400600209D010000B7010000792000009B
:1000100000000000000000000000000000000000E0
:10002000000000000000000000000000BB01000014
:100030000000000000000000BD010000BF01000042
:10004000FD25000007260000112600001B260000E9
:10005000252600002F260000392600004326000038
:100060004D26000057260000612600006B26000088
:10007000752600007F2600008926000093260000D8
:100080009D260000A7260000B1260000BB26000028
:10009000C5260000CF260000D9260000E326000078
:1000A000ED260000F7260000012700000B270000C6
:1000B000152700001F270000292700003327000014
:1000C00000F002F800F03EF80CA030C80838241800
:1000D0002D18A246671EAB4654465D46AC4201D180
:1000E00000F030F87E460F3E0FCCB6460126334274
:1000F00000D0FB1AA246AB46334318475CAA000067
:100100007CAA0000103A02D378C878C1FAD8520706
:1001100001D330C830C101D504680C6070470000BD
:100120000023002400250026103A01D378C1FBD813
:10013000520700D330C100D50B6070471FB51FBDFB
:1001400010B510BD01F050F81146FFF7F7FF06F0AB
:10015000A1FE01F068F803B4FFF7F2FF03BC04F05E
:100160009FF9000070B505460C46164602E00FCC1C
:100170000FC5103E102EFAD2082E02D303CC03C5B1
:10018000083E042E07D301CC01C5361F03E02178B9
:100190002970641C6D1C761EF9D270BD0C480D4A86
:1001A000002100A1814200D902440B4802600B48A3
:1001B00080470B480047FEE7FEE7FEE7FEE7FEE765
:1001C000FEE7000007480849084A094B704700004D
:1001D000000000200000000008ED00E0DD4000000D
:1001E000C100000040020020400600204004002022
:1001F000400400207047002203098B422CD3030ADD
:100200008B4211D300239C464EE003460B433CD463
:10021000002243088B4231D303098B421CD3030ACB
:100220008B4201D394463FE0C3098B4201D3CB01FB
:10023000C01A524183098B4201D38B01C01A52412B
:1002400043098B4201D34B01C01A524103098B422F
:1002500001D30B01C01A5241C3088B4201D3CB001A
:10026000C01A524183088B4201D38B00C01A5241FD
:1002700043088B4201D34B00C01A5241411A00D2AD
:1002800001465241104670475DE0CA0F00D0494216
:10029000031000D34042534000229C4603098B4286
:1002A0002DD3030A8B4212D3FC22890112BA030A0E
:1002B0008B420CD3890192118B4208D38901921190
:1002C0008B4204D389013AD0921100E08909C30915
:1002D0008B4201D3CB01C01A524183098B4201D317
:1002E0008B01C01A524143098B4201D34B01C01A02
:1002F000524103098B4201D30B01C01A5241C3087A
:100300008B4201D3CB00C01A524183088B4201D3E8
:100310008B00C01A5241D9D243088B4201D34B0003
:10032000C01A5241411A00D20146634652415B1045
:10033000104601D34042002B00D549427047634626
:100340005B1000D3404201B50020C046C04602BD4C
:1003500070477047704700000246C80FC0078143CE
:100360004B0030B54B405B009B0D20D01923DB06C2
:10037000C91801231B05994220DB0324A407042587
:100380001346AB400BD3002B04D1EB0613409B006C
:10039000E34204D401246407002312195941FF23C6
:1003A0001B0599420BD2C9000143500F09E0CB0253
:1003B00004D501430803024305D0054830BDFF21A1
:1003C000C905084330BD084607210905884330BDEB
:1003D0000000C07FF0B50C46871A9C410D46861A76
:1003E0009D4103D2C01BA141D21963410D0D1F0DC8
:1003F000C94EEC1BAE435CD07F057F0D0026002F5D
:1004000051D02D05AC46A943DD020123ED0A1B05A1
:100410001D4320231B1B24D41746E7403818714185
:100420002F46E740CC199D402818314661410C0DFC
:1004300027D161449A4013D50023401C59415200F2
:100440000ED14008400001224B005205D34207D391
:1004500005204007C14201D5B04900E0B04930460F
:10046000F0BD6B00002A00D001229A181F23203C07
:100470001B1B01D5002302E0E540281871410C0D3B
:10048000D7D0012424050919C407CD07400849081D
:10049000E40F28436144002CD5D00024401C614166
:1004A0009A40D0D1CDE76A05520DD9D1C90FC907FD
:1004B000D5E79C4D4E00002801D0012400E0002427
:1004C00034195F00002A01D0012600E00026BE1981
:1004D000954FAC420CD8AE420AD8B44206D00125A2
:1004E0006D05EC42BCD010461946F0BD9942FCD0D7
:1004F00000203946F0BDF0B51FB40C460F46811AF6
:100500009F412546861A9D4106D20125ED076F4081
:10051000401ABC4152187B41210D1E0D8D1BAC466B
:100520007D4D8D437ED075056D0D7CD00D05AE469D
:10053000AC431B031B0B794D52429D412023664661
:100540009B1B14D31746F7403818002600907441BF
:1005500060462F460741E41900989D4028186641DF
:1005600016D4714671189A4025D5012320E09318BE
:100570002A466A415200002B00D0521C1E23203E06
:100580009B1B002B61DD3541EE1728186641E8D52D
:10059000001876415B1C9A4000D3401C4B05F318B1
:1005A0001524E34010D3002B52D071467118D30F9D
:1005B000C01802D3491C05B0F0BD0123DB079A42E5
:1005C000F9D140084000F6E701225205B21801D1E6
:1005D000002853D00123CC0ADB029943891E002A4C
:1005E00008D1020C03D0020C0004103902E00246CC
:1005F000002020390023550B05D112020823550B8A
:1006000001D152010D23550C01D112011B1DD50C36
:1006100001D192009B1C150D01D152005B1C2025BD
:10062000EE1A01E02CE022E00546F5401543984023
:10063000CA1AE10769181305C918002ABBDA032092
:1006400040070818C10FC9070FE071466118B2E7EB
:10065000F10740080843711071444A000CD001238F
:100660005B059A42A7D2C90FC9070020A3E7490535
:10067000490D26D1002001E00028F4D100219AE79D
:10068000284D6600002801D0012100E000217118EA
:100690005F00002A01D0012600E00026BE19224F8B
:1006A000A94210D8AE420ED8B14208D001256D053E
:1006B000E94206D01946A802414010467BE79C4219
:1006C00001D0214677E70020394674E710B50C4683
:1006D0005C4005D50124E4076340FFF70CFF10BD23
:1006E000FFF778FE10BD30B40C465C4004D5012401
:1006F000E407634030BC6DE630BCFCE670B5012415
:10070000E40761400D465D4002D4FFF763FE70BD13
:100710006340FFF7F0FE70BDFF0700000000F0FF30
:100720000000F07F0000E0FF0000F87FF0B5F94D19
:100730000C091E092C402E402F468BB0A7437DD0BC
:10074000B543FCD0002E7AD0002CFCD00D465D4085
:10075000ED0F2543AC1BFF25AD0464190894C502B9
:10076000440DC9022143500DDC0204430120C0079F
:1007700001430443D2020191200C110C00958C46D8
:10078000010423468B430A9161460904E24D8A43E2
:100790000991010A7D4449198039097805464D437C
:1007A00001266D18F605751B6943C90C640B891C7D
:1007B0004C436418B5012C1B250C2E04B4434C4348
:1007C0004D43210C691889090591009DE90701D065
:1007D0000121C90704912C4601996708CD072F43D1
:1007E0004C08059DE10B4D432D0C2946664675438B
:1007F00002950D4645432E46029D7D1BB441009552
:100800000D465D4301942C0C2F040D465543AE4616
:100810002D0C3D43029503947546049C2D04641BE6
:10082000049406D2029C039D641C00267541039526
:10083000029401AC70CC009F7D1B01E03EE162E1BF
:10084000B44109040095079101940599A4086143F6
:10085000090C0C464443650BE7040C46664674439A
:10086000A646640B3C43039502947446049DE4043D
:100870002C1B049406D2029C039D641C0026754127
:100880000395029401AC70CC009F7D1BB441019490
:100890000C465C430095650FE7000C465443A646A2
:1008A000640F3C43039502947446049DE4002C1BA2
:1008B000049406D2029C039D641C00267541039596
:1008C000029401AC70CC009F7D1BB441AE09AF0611
:1008D000049DC900AD092F43049DA406AD060495EF
:1008E000079D344369180791059DE10B4D432D0C7D
:1008F00029466646754302950D4645432E46029DA0
:100900007D1BB44100950D465D4301942C0C2F04D2
:100910000D465543AE462D0C3D4302950394754656
:10092000049C2D04641B049406D2029C039D641C49
:10093000002675410395029401AC70CC009F7D1B8D
:10094000B44101948C050694079C890A61180095AE
:100950000791019C0599A4086143090C0D46454384
:10096000680BEF040D46644665436C0B3C43049FE3
:10097000ED047D1BAC4602D20025641C6841009E3C
:10098000019D371B85410846584301950C46460F8B
:10099000C5005443600F28436546E4002C1B02D277
:1009A0000025401C6E41019D3F1AB5412846BD09F6
:1009B000800628438446A009BF064E020699A40675
:1009C00076180743079D002068410A99079019434C
:1009D0000020099B00906046FF1913434041E20F3D
:1009E00064003A43A4460446D71A8C41A04203D976
:1009F0000120009020463A46C70F941840416246B5
:100A0000D20F2243644664000494009CBE466400F6
:100A1000D71AA446044602978C417746002F01D18D
:100A2000A04204D96046401C8446029A2046C40F66
:100A3000A64694184041049A0546D20F22436446C4
:100A40006400D31A8D417146002901D1A84202D910
:100A500028461A46641C10430122002800D0164381
:100A600061020020079B891904465C410223002C87
:100A700002DB491813466441089DCE0A2D145D1906
:100A80004B056705E10A2C050D1908993E43C90776
:100A90006940002B08D0934006D30022761C5141B8
:100AA000002B01D1760876001C4A002D43DB15424D
:100AB00041D0AA433FD030460BB0F0BD06180D46DA
:100AC0004D41174C7642AC411AD395181C465C41F7
:100AD000134A6D42A24113D3012252054C00D44265
:100AE0000AD15C00D4420BD04B4002D59202114394
:100AF000E2E749004908DFE75940C90FC90718E094
:100B000000200849D8E7054801420DD10342F7D03B
:100B1000F2E700000000FF0700A300000000F07FE4
:100B20000000E0FF0000F87F114859400143C01267
:100B300041400020C0E70123089A9B069A4205DC49
:100B4000032252078918C90FC907B5E705225207C2
:100B50008918074A1143D2125140ADE770B51546C6
:100B60001C4602460B4628462146FFF7DFFD70BDB6
:100B7000FFFFFF7F0346CA02400D10B510430A1560
:100B800004D00124E4072043002A05DB0A4CA21A02
:100B900004D4D040FF2A00DD002010BD4A00002B05
:100BA00001D0012000E00020101801225205D0429F
:100BB000F2D8C817C04310BD1E0400001F22030C4A
:100BC00002D10F22000402D0030E03D004E0002063
:100BD000014670470002083A030F01D10001121FBD
:100BE000830F01D18000921E002801DB4000521EBD
:100BF000120551184205C012411810467047C10F26
:100C0000C90700D04042012292071143D6E70121D3
:100C10008907D3E7F0B58B4C0F09254689B0BD4352
:100C20007BD01D092646AE43FAD00E465E402740D3
:100C3000F60F3E43254071D024012142FBD0FF2412
:100C4000AD19A4042D1B039501252D05DB02DB0A3C
:100C5000C9022B43C90A29431E010901040F130FBE
:100C6000050121431701880B820391432D098C460E
:100C7000A90B1E438A039543B30B9A0396433F097E
:100C8000BA0B9403A74302962E467E430497B646BA
:100C90004E19D7190C460196544305977E43371BCE
:100CA0007646BF1B3601B646BE0B36190096764611
:100CB000BC043719009C01D3641C00946400002F0D
:100CC00001D001263443029E049F754366467E434D
:100CD0000496760034196E0034190094029C019E2B
:100CE0001C196643751BAE46069465464519059C5E
:100CF00005956C43594375460891691A0191049E04
:100D000001465143A41B0491611A009C0791E1061E
:100D100005D061090122114302E072E06EE0610931
:100D2000089D00272C0A2D066918049D7C412A0A7B
:100D30002D066918019D6241AC0DAD026D1854413C
:100D4000079A910D920255196141029A64465843DF
:100D50005443069B059A5A43121A131B9A0E9B0181
:100D60005B187A41010B0005C3185141220A200685
:100D700044195A419A4200D2491C01204002814242
:100D800003D315230226F64302E014230326F64379
:100D90002020C51AA9401746AF40DA400A43204632
:100DA0000399D8400914731819055118039A384348
:100DB000D2075140AC4009D00122944006D3002212
:100DC000401C5141002C01D1400840001E4A934272
:100DD00012D3012203989206904207DB05204007B8
:100DE00009181A480143C012414004E0032040079B
:100DF0000818C10FC907002009B0F0BD0020F10795
:100E0000FAE705180C464C4111486D42A04115D334
:100E100094181A465A410E48644290410ED301205C
:100E20004A004005824209D35A00824206D3594003
:100E3000C90F084AC90700201143DDE70020064911
:100E4000DAE700000000FF07FE070000FFFFFF7F5A
:100E50000000E0FF0000F07F0000F87F0121C905DD
:100E60000123411842001B06D3185B0E0AD0C110A3
:100E70000722D206891840075242D14201D55200BA
:100E800089187047090208D50146002A03D0C10F0E
:100E9000C9070020704710467047420202D0002068
:100EA00002497047072109050143F4E70000F87F74
:100EB000F0B5FF252D04C609C209FF2704462E40C0
:100EC0000137CB093E4348402A402B400746002AC1
:100ED0006BD0002B69D0AA4267D0AB4265D0002806
:100EE00000DA32460125ED0529432C430902200290
:100EF000090AD21A4B0C7F24E31A434C000A7C44A3
:100F0000E35C7D242404121914145B00A2188842A7
:100F100001D3521C00E0400049420C465C432411BE
:100F20005C43DB016415E318040A5C43C502200D31
:100F30000C4644436419250A5D432303EC0C0D461B
:100F4000654300030019EB184C42A34201D35B1820
:100F5000401CD4052018002B07D05B00C91804D30F
:100F6000401C002901D1400840003F2189048A42E9
:100F700009D3002A08DC1106090F04D00321490710
:100F80004018C00FC007F0BD0122410012068918A9
:100F90007F2252069142F6D205214907C84201D567
:100FA0009010F0BDFF20C005F0BD002F00DA3246E2
:100FB0001648AA4207D2AB4205D21902090E17D031
:100FC000F80FC007F0BDFF2563002D06AB42F9D82E
:100FD0004900A942F6D8AB4201D1A942F2D0A942B8
:100FE00001D1002101E061004908D0050843F0BDAE
:100FF0001102090EFBD0FF200243D005F0BD0A46C6
:101000000146104654E70000169C00000000C07F17
:101010000102C21504D00123DB071943002A0ADBB1
:101020009E239A1A02D40846D0407047FF224100FE
:101030001206914201D900207047C017C043704783
:101040001F22030C02D10F2200041CD0030E01D179
:101050000002083A030F01D10001121F830F01D1D2
:101060008000921E002801DB4000521ED20551185C
:10107000021251181922904004D3491C002801D1B2
:101080004908490008467047C10FC90700D04042CF
:10109000012292071143D3E701218907D0E7704766
:1010A000F8B5224C4E00069DA6420AD8A64201D1B0
:1010B000002806D15E00A64203D8A6420AD1002A23
:1010C00008D00D24240425422CD02946002000F00D
:1010D00061F8F8BD0C461C430CD4994202D0EFF3E2
:1010E0000080F8BD904202D0EFF30080F8BDEFF32E
:1010F0000080F8BD09242407E5008B4206D0EFF3F9
:101100000080A043591A06D2284304E0101A05D3E0
:10111000EFF30080A04380F30088F8BDEFF3008078
:10112000A043F1E7009500F04DF8F8BD0000E0FFA6
:1011300010B5FF231B0644009C421DD84C009C4266
:101140001AD80346124A0B4307D4401A02D3EFF3CE
:10115000008010BDEFF3008010BD081A06D2EFF337
:10116000008001219043C907084302E0EFF30080AB
:10117000904380F3008810BD0D231B041A4204D055
:101180001146002000F006F810BD00F025F810BD53
:1011900000000090C80212D54803400F002804D078
:1011A000C803C043012188407047EFF3008000016D
:1011B000000903210907084380F3008870470020D5
:1011C0007047000010B500200249029A00F033F881
:1011D00010BD00000000F87F10B5024800F02BF8A9
:1011E00010BD00000000C07F754600F053F8AE4609
:1011F000050069465346C008C000854618B020B5B2
:10120000FEF7E0FF60BC00274908B6460026C0C5CF
:10121000C0C5C0C5C0C5C0C5C0C5C0C5C0C5403DAE
:1012200049008D46704710B50446C046C04620466A
:10123000FEF791FF10BD10B50C461107090F0929E3
:1012400004D00A290AD008290CD104E0114608204C
:10125000FFF7A0FF06E0510606D501E0510601D5D3
:101260000120C007214610BDD10607D5010109099B
:10127000CC084907000E0006044309E0410F200294
:101280004907000A0143200E00061D22D1410143F7
:101290000846E7E700487047E0010020FEB5144823
:1012A00000F06AF91349898A114A1288501AFFF727
:1012B000A6FC0446104A114BFFF7ACFC0646002280
:1012C0000F4BFFF703FA01910090FFF753FC0D4914
:1012D000086001200C4948710C48007802218843BD
:1012E0000A49087001200A49087000F025F9FEBD7E
:1012F0008C000020200C1000849ECDAACFD5BE3FCC
:10130000000039409C000020940000203F00002095
:101310003D000020F8B500200090404800F02CF976
:101320003F48007804210840002827D001203D498B
:1013300008703A480088FFF76AFC064632460B46BA
:1013400039483A49FFF7F2F90446FFF705F83849FA
:10135000086008460068FFF781FD0446354A364BB1
:10136000FFF7C1F90646FEF7F7FF314908602C4840
:101370000078042188432A49087048E0284800780A
:10138000C007C00F002842D024480088FFF784FE21
:10139000054627480168284608F0C6F804468B2110
:1013A000C905FFF785FD00902449009808F0BCF8B6
:1013B000044601218907FFF77BFD00902049009832
:1013C000086001201F490870684603F0E3FC1E49CD
:1013D000009808601D49097889001D4A00985050FE
:1013E0001C480078002802D11B4900980860174863
:1013F0000078401CC0B2154908700A2801DB0020A3
:10140000087007480078400840000549087001202E
:101410001249487100F090F8F8BD00008C000020DF
:101420003F0000203E000020333333333333B340DA
:101430004C0000209A9999999999A93F0000404041
:10144000A40000203C000020A8000020AC000020E8
:101450007001002050000020A00000209400002017
:101460000348406B40084000014948637047000052
:10147000802400404279012A05D14A69002A02D01D
:10148000184B4A695A610278012A05D10A68002A74
:1014900002D0144B0A681A604278012A05D14A68C2
:1014A000002A02D00F4B4A685A608278012A05D17F
:1014B0008A68002A02D00B4B8A689A60C278012A97
:1014C00005D1CA68002A02D0064BCA68DA600279E0
:1014D000012A05D10A69002A02D0024B0A691A6161
:1014E00070470000C8010020014607484068FF22FD
:1014F000F13290430A01FF23F1331A401043024AAC
:101500005060002070470000002400400146002980
:1015100001D104207047074880680122920290435D
:101520000A78920201239B021A401043014A9060FC
:101530000020EFE7002400400348406840084000D6
:10154000014948607047000000240040034840689B
:1015500040084000401C014948607047002400409A
:10156000044840680121C903884340180149486084
:1015700070470000002400400146002901D10420EA
:1015800070470348006A0005000D08800020F7E757
:101590008024004010B504463948006B0007C00F96
:1015A00000280CD037488068002802D03549886868
:1015B00080473348406B08218843314948633048AD
:1015C000006B4007C00F00280CD02E48C0680028D0
:1015D00002D02C49C86880472948406B04218843C1
:1015E000274948632648006B8007C00F00280CD0AD
:1015F00024480069002802D0224908698047204811
:10160000406B022188431E4948631D48006BC00798
:10161000C00F00280CD01B484069002802D019498F
:10162000486980471648406B4008400014494863A9
:101630001348006BC006C00F00280CD0114840684A
:10164000002802D00F49486880470D48406B1021A0
:1016500088430B4948630A48006B8006C00F002886
:101660000CD008480068002802D006490868804766
:101670000348406B202188430149486310BD0000A6
:1016800080240040C80100200146002901D1042027
:101690007047204840680C2290434A7892000C23FF
:1016A0001A4010431B4A5060104640689A0290430B
:1016B0008A7812039B021A401043164A5060104663
:1016C0004068DA109043CA785202DB101A40104387
:1016D000104A506010464068D21490430A79D202F2
:1016E0000123DB021A4010430A4A5060104680680A
:1016F00012149043074A9060104680685214904339
:10170000044A90601046806892149043014A9060A9
:101710000020BDE700240040034800684008400066
:10172000401C014908607047C0240040014603295D
:1017300001DD04207047002901D0012908D10F489C
:10174000406801229203904380180C4A506006E0E2
:101750000A484068012292039043084A50600748B3
:1017600040680322520290434A0203235B021A405C
:101770001043024A50600020DCE7000000240040D3
:1017800030B5024600201402034D631901248C4039
:10179000E4435C6130BD0000000C004010B502461F
:1017A0000020002A04D0012A0BD0022A1BD111E00C
:1017B0000F4B1B681B0C1B048CB223430C4C236087
:1017C00013E00C4B1B681B0C1B048CB22343094C0D
:1017D00023600AE0084B1B681B0C1B048CB22343DC
:1017E000054C236001E0012000BF00BF10BD0000D8
:1017F000000C0040000D0040000E004010B50246F5
:101800000020002A04D0012A0BD0022A1BD111E0AB
:101810000F4B5B681B0C1B048CB223430C4C6360A6
:1018200013E00C4B5B681B0C1B048CB22343094C6C
:1018300063600AE0084B5B681B0C1B048CB22343FB
:10184000054C636001E0012000BF00BF10BD000037
:10185000000C0040000D0040000E004010B5014695
:1018600000200B02034C1A19D3685B085B005B1C59
:10187000D36010BD000C004030B502460020002AA5
:1018800004D0012A56D0022A7ED1A9E0804BDB6821
:1018900003242403A3430C78240303252D032C40A5
:1018A00023437B4CE3602346DB686415A3434C78F9
:1018B000640201256D022C402343754CE3602346EE
:1018C000DB68A415A3438C7824026D102C402343BD
:1018D0006F4CE3602346DB687024A343CC7824017B
:1018E00070252C4023436A4CE3602346DB680824C0
:1018F000A3430C79E40008252C402343644CE360A7
:101900002346DB680424A3434C79A40004252C401F
:1019100023435F4CE3602346DB680224A3438C79B6
:10192000640002252C402343594CE360594C8B68DA
:101930002360ABE0584BDB6803242403A3430C78FB
:10194000240303252D032C402343534CE3602346FB
:10195000DB686415A3434C78640201256D022C40BA
:1019600023434D4CE3602346DB68A415A3438C78E6
:1019700024026D102C402343474CE3602346DB6870
:101980007024A343CC7800E07EE0240170252C4035
:101990002343414CE3602346DB680824A3430C79CE
:1019A000E40008252C4023433B4CE3602346DB68DE
:1019B0000424A3434C79A40004252C402343364C33
:1019C000E3602346DB680224A3438C79640002258C
:1019D0002C402343304CE360304CCB68236055E00F
:1019E0002F4BDB6803242403A3430C782403032533
:1019F0002D032C4023432A4CE3602346DB68641507
:101A0000A3434C78640201256D022C402343244CEF
:101A1000E3602346DB68A415A3438C7824026D1091
:101A20002C4023431E4CE3602346DB687024A34311
:101A3000CC78240170252C402343194CE3602346C5
:101A4000DB680824A3430C79E40008252C402343D9
:101A5000134CE3602346DB680424A3434C79A400C1
:101A600004252C4023430E4CE3602346DB6802240C
:101A7000A3438C79640002252C402343084CE36087
:101A8000084C0B69236001E0012000BF00BF30BD9E
:101A9000000C0040D8000020000D0040DC000020B9
:101AA000000E0040E00000201CB5012168460170D6
:101AB000417081700021C170012101716A460421C9
:101AC000C02000F0D7F96A460021C02000F0D2F90A
:101AD0006A460B21402000F0CDF96A460A21002019
:101AE00000F0C8F96A460921002000F0C3F96A46EF
:101AF0000C21002000F0BEF96A460B21002000F006
:101B0000B9F908220421C02000F020F908220021A0
:101B1000C02000F01BF908220B21402000F016F92C
:101B200008220A21002000F011F9082209210020D2
:101B300000F00CF908220C21002000F007F908221F
:101B40000B21002000F002F901216846017041706C
:101B5000022181700021C170012101716A460F21AB
:101B6000802000F087F904220F21802000F0EEF899
:101B700001220321084600F01DF801220321022062
:101B800000F018F801220321002000F013F80122D0
:101B90000321104600F00EF81CBD000010B50446ED
:101BA00003480068002802D001480068804710BD43
:101BB000C000002070B504460E4615462046002899
:101BC00005DBC206D20E012191401A4A116000BF06
:101BD0003146204602F028FC012D0ED12046002877
:101BE00009DB00BF00BFC206D20E01219140124A9C
:101BF000116000BF00BF00BF1BE02046002816DBBD
:101C0000C206D20E012191400B4A8032116000BF02
:101C100000BF00BFBFF34F8F00BF00BF00BF00BFBA
:101C200000BF00BFBFF36F8F00BF00BF00BF00BF8A
:101C300000BF70BD80E200E000E100E008B50321D4
:101C4000684603F07FF900F009FF00216846017043
:101C5000012141700021817000F0BAFD30BF08BD44
:101C600070B5049C154D2D78002D13D1002B01D09B
:101C7000134D2B80134D6D88002D07D0114D6D88AD
:101C80006D1EADB20F4E75808D4215DC01250B4ED9
:101C9000357011E0002C01D0094D2C80094D6D8864
:101CA0006D1CADB2074E7580954205DB0025034ED5
:101CB000357005786D1C057070BD0000B8000020FF
:101CC000B2000020A401002001460020144A126A3C
:101CD000520052080123DB07D218114B1A62114A35
:101CE000114BDA62114ADA62002906D11A46126AE9
:101CF0000C239A430C4B1A6210E0012907D10A4ABF
:101D0000126A0C239A43121D074B1A6206E0064A18
:101D1000126A0C239A430832034B1A627047000080
:101D2000002000405A5A000000000240A5A5000013
:101D3000024605481018006901238B409843024B66
:101D4000D318186100207047000E024070B5044699
:101D50000D46164629462046FFF7EAFF0123324684
:101D60002946204602F0DCFA002070BD02460348F6
:101D700010184068C840C007C00F7047000D0240EF
:101D80000246034810180068C840C007C00F7047DB
:101D9000000E024010B5044603F0D4FA002C06D021
:101DA000012C35D0022C40D0032C60D148E00A2110
:101DB0000020FFF7E5FF012805D10A210020FFF7E9
:101DC000B7FF06F0F1F909210020FFF7D9FF01283C
:101DD00005D109210020FFF7ABFF06F095F90C2192
:101DE0000020FFF7CDFF012805D10C210020FFF7CF
:101DF0009FFF06F071F90B210020FFF7C1FF0128BA
:101E000005D10B210020FFF793FF06F04DF92EE0DE
:101E10000B214020FFF7B4FF012805D10B21402002
:101E2000FFF786FF06F09CFA21E00F218020FFF7E4
:101E3000A7FF012803D10F218020FFF779FF16E0CB
:101E40000021C020FFF79CFF012805D10021C02000
:101E5000FFF76EFF06F080F90421C020FFF790FF26
:101E6000012803D10421C020FFF762FF00BF00BF9B
:101E700010BD000030B503464E481818C068012454
:101E80008C40A0434B4C1C19E06000204A4C1C19AC
:101E90008D0060511078012809D146481818006853
:101EA00001248C402043434C1C19206008E0414829
:101EB0001818006801248C40A0433E4C1C19206077
:101EC0005078002809D13B481818C06901248C407B
:101ED000A043384C1C19E06108E036481818C06966
:101EE00001248C402043334C1C19E0619078012878
:101EF00012D130481818006A01248C4020432D4C20
:101F00001C1920622B481818406A01248C40A043F9
:101F1000284C1C19606227E09078022812D12548CD
:101F20001818006A01248C40A043224C1C1920621E
:101F300020481818406A01248C4020431D4C1C196D
:101F4000606211E01B481818006A01248C40A0430D
:101F5000184C1C19206217481818446A0120884040
:101F60008443144818184462D078002809D11148D5
:101F70001818C06A01248C40A0430E4C1C19E06262
:101F800008E00C481818C06A01248C402043094C12
:101F90001C19E062094880680124E403A043147915
:101FA000E4030125ED032C402043044CA0600020F5
:101FB00030BD0000000D0240000C0240000F024046
:101FC0000246034810188068C840C007C00F704719
:101FD000000D024010B50346024818188C0002514B
:101FE000002010BD000C0240024605481018C068D1
:101FF00001238B401843024BD318D8600020704750
:10200000000D024010B502460C48406801231B0336
:10201000984313030124240323401843074B5860BB
:102020001846406803231B0298430B020324240232
:1020300023401843014B5860002010BD000F0240A0
:1020400010B50346002A09D00A48181880680124F0
:102050008C402043074C1C19A06008E00548181864
:10206000806801248C40A043024C1C19A060002011
:1020700010BD0000000D024008B50020009000BF18
:1020800000980028FCD008BD10B502460124002AA3
:1020900030D10B0002F0BAF906040B121920272BDD
:1020A0002E488068402398432C4B986021E02B48B1
:1020B000806820239843294B98601AE0274880685D
:1020C00010239843254B986013E02448806804232C
:1020D0009843224B98600CE02048806840084000FC
:1020E0001E4B986005E000201C4B186001E00420A6
:1020F00010BD30E00B0002F089F906040B12192024
:10210000272B1748806840239843154B986021E09F
:102110001348806820239843114B98601AE01048B8
:102120008068102398430E4B986013E00C48806839
:10213000042398430A4B98600CE0094880684008E3
:102140004000074B986005E00020054B186001E057
:102150000420CDE700BF00242046C9E7000400406A
:102160000044004001460120002906D1074A926838
:1021700008239A43054B9A6005E0054A92680823B4
:102180009A43034B9A60002070470000000400400F
:102190000044004001460120002903D10022044BE5
:1021A0009A6002E00022034B9A6000207047000012
:1021B000000400400044004001460020002904D1F2
:1021C000044A92681207D00F03E0034A926812078C
:1021D000D00F70470004004000440040014600203A
:1021E000002903D1034A5269D0B202E0024A52697F
:1021F000D0B27047000400400044004070B505466E
:102200000C4601262178284600F058F906466178E8
:10221000284600F043F906466078092803DA0421CD
:10222000284600F04BF96068002802D00549606834
:102230000860A068002802D00349A0680860304602
:1022400070BD0000D0000020D4000020FFB583B096
:1022500017461C460120029000255848008801219D
:102260000904081A86B20121039800F027F979E0E1
:1022700000BF0398FFF7A0FF002807D14F48008850
:10228000301880B2FF2191318842F2DB0398FFF7CA
:10229000A5FF019001984107490F002956D1C010B0
:1022A000030002F0B3F80C53071A105315534523DB
:1022B0004A2A395301210398FFF7E6FEEA210398E1
:1022C00000F074F947E00499039800F06FF942E0D8
:1022D0000121039800F0F2F83DE001210398FFF797
:1022E000D3FEEB21039800F061F934E0012C03D90F
:1022F0000321039800F0E2F82DE0039800F0BEF807
:1023000029466A1CD5B27854601EA84203D1032125
:102310000398FFF7B9FE1EE0039800F0AFF82946D6
:102320006A1CD5B278540221039800F0C7F812E075
:102330000121039800F0C2F80DE00221039800F09B
:10234000BDF80121039800F0B9F804E001210398D9
:1023500000F0B4F800BF00BF0398FFF703FFA542E9
:1023600000D108E015480088301880B2FF21913173
:10237000884200DA7CE700BF10480088301880B23D
:10238000642816DB03210398FFF77EFE00BF039845
:10239000FFF712FF002805D108480088301880B2E6
:1023A0006428F4DB0221039800F088F8092007B0C4
:1023B000F0BD002002900298F9E70000080000201C
:1023C000FFB581B015461E4601200090002701216F
:1023D000019800F073F849E000BF0198FFF7ECFEA8
:1023E0000028FAD00198FFF7F9FE04462046282C71
:1023F0001AD006DC082809D0182810D0202826D1A9
:102400001AE030281ED0382821D116E00121019889
:10241000FFF73AFEEA21019800F0C8F818E00299A7
:10242000019800F0C3F813E038467A1CD7B2295C53
:10243000019800F0BBF80BE000BF0121019800F00B
:102440003DF805E00221019800F038F800E000BFF7
:1024500000BFB74207D90221019800F02FF8019878
:10246000FFF780FE03E00198FFF77CFEB4E700BFB2
:1024700000200090009805B0F0BD0000014600204B
:10248000002903D1034AD268D0B202E0024AD268DE
:10249000D0B27047000400400044004002460120D2
:1024A000002A02D1034B596001E0034B5960002020
:1024B00070470000000400400044004010B5024690
:1024C0000124002A35D10B0001F0A0FF06040C14F2
:1024D0001C242C3033488068402398434030314BD3
:1024E000986025E02F4880682023984320302D4BAA
:1024F00098601DE02B488068102398431030294BCA
:10250000986015E02748806804239843001D254BF8
:1025100098600DE02348806840084000401C214B33
:10252000986005E001201F4B186001E0042010BDF9
:1025300035E00B0001F06AFF06040C141C242C305B
:1025400019488068402398434030174B986025E035
:1025500015488068202398432030134B98601DE075
:10256000114880681023984310300F4B986015E095
:102570000D48806804239843001D0B4B98600DE0C4
:102580000948806840084000401C074B986005E0FF
:102590000120054B186001E00420C8E700BF0024BB
:1025A0002046C4E7000400400044004002460120E9
:1025B000002A02D1034BD96001E0034BD96000200F
:1025C00070470000000400400044004010B504467D
:1025D000002C07D10748006800280AD00548006889
:1025E000804706E004480068002802D002480068DE
:1025F000804710BDD0000020D400002010B500207E
:10260000FFF7C8FB10BD10B50120FFF7C3FB10BDDD
:1026100010B50220FFF7BEFB10BD10B50320FFF779
:10262000B9FB10BD10B50020C046C04610BD10B5A6
:102630000020C046C04610BD10B5002001F0DEFDF0
:1026400010BD10B5012001F0D9FD10BD10B500205E
:10265000C046C04610BD10B50120C046C04610BDE2
:1026600010B5002001F094F810BD10B5012001F064
:102670008FF810BD10B50020FFF7A8FF10BD10B5F2
:102680000120FFF7A3FF10BD10B5002001F03AFDB7
:1026900010BD10B5012001F035FD10BD10B50220B0
:1026A00001F030FD10BD10B5002000F085F810BD20
:1026B00010B50420C046C04610BD10B50520C04668
:1026C000C04610BD10B50620C046C04610BD10B5AE
:1026D000002001F017F810BD10B5002001F0E8FD52
:1026E00010BD10B50020C046C04610BD10B500207A
:1026F000FEF750FF10BD10B50020C046C04610BD0B
:1027000010B50020C046C04610BD10B50120C0461F
:10271000C04610BD10B5002000F0AAF910BD10B5DC
:102720000020C046C04610BD10B50020FFF736FAA5
:1027300010BD10B50020C046C04610BD00B585B024
:10274000002100910C2102A802F0FCFB032101A84A
:1027500002F0F8FB0021684601714171817101A806
:1027600001F076F90121092001F0ACFB104804903A
:10277000002168464172012101720321817200210A
:10278000C17201730121417302A800F00DF90948DB
:1027900000F0D4F800F0F4F800F0E8F8012203218A
:1027A0001120FFF707FA00F04DF905B000BD000059
:1027B000312800003FFF000010B5044603480068C0
:1027C000002802D001480068804710BDC4000020E6
:1027D000014601200A78002A04D0144A1269102305
:1027E0001A4303E0114A126910239A430F4B1A61EE
:1027F0004A78002A04D01A46126904231A4303E0D7
:102800000A4A126904239A43084B1A618A78002AFB
:1028100004D01A46126902231A4303E0034A1269DC
:1028200002239A43014B1A610020704700ED00E03B
:1028300010B500F0B1F8012869D100F097F83448DC
:102840000088401C3249088032480088401C3149C9
:10285000088031480078401C2F4908700878C1175B
:10286000490F0918C910C900411A02D101202B498A
:1028700008700A2128480078FDF7C7FC002902D11A
:10288000012027490870142123480078FDF7BDFC7A
:10289000002902D101202349087064211E480078D4
:1028A000FDF7B3FC002902D101201F490870C8219F
:1028B00019480078FDF7A9FC00290AD11B480088B7
:1028C000401C1A490880012019490870002012494B
:1028D00008701048008819218901884217DB00BF61
:1028E00000BF00BF00BF00BFBFF34F8F00BF00BFDE
:1028F00000BF10481049C86000BF00BF00BFBFF351
:102900004F8F00BF00BF00BF00BF00BFFDE710BD7D
:10291000080000200A0000200E0000200F00002008
:102920001000002011000020120000200C000020E8
:10293000130000200400FA0500ED00E010B5014688
:1029400001200022084BDB681B06DA0F002A09D0A1
:10295000054B5B681B0C1B048CB22343024C636069
:10296000002000E0012010BD000F004001200349BD
:1029700049698143014A516100207047000F0040BE
:1029800001200449C968820291438918014AD16033
:1029900000207047000F0040002002490969C80765
:1029A000C00F7047000F004010B501460120234AB8
:1029B000D26843029A430B785B02440223401A43D5
:1029C0001E4BDA601A46D26803029A434B781B0208
:1029D000040223401A43194BDA601A46D2683023A6
:1029E0009A438B781B01302423401A43134BDA603F
:1029F0001A46D26808239A43CB78DB000824234088
:102A00001A430E4BDA601A46D26804239A430B79B4
:102A10009B00042423401A43084BDA601A46D2680C
:102A200002239A434B795B00022423401A43034B51
:102A3000DA60034B8A681A60002010BD000F004066
:102A4000C400002001200449C9688143491C024A8E
:102A5000D160002070470000000F004001200349B2
:102A6000C9688143014AD16000207047000F0040CF
:102A700010B504460648C06A400840000449C862D0
:102A800004480068002802D002480068804710BD52
:102A900000240040E400002010B5FE480078022821
:102AA00064D1FD48007801214840FB490870084680
:102AB0000078002802D005F065FD57E004F042FDE3
:102AC00003F048FF0B210020FFF750F9002836D112
:102AD0000A21FFF74BF9002831D10921FFF746F908
:102AE00000282CD00C210020FFF740F9002826D028
:102AF0000420EA4908700120E949087006F000FC4A
:102B0000FF2002F089FA0020E6490870E6490870C3
:102B1000E6490870E049087001220821FFF790FAA1
:102B20000120E34908701420E24908700020E249BE
:102B30000870A020488032200871487110BD002024
:102B4000DE490870D649087000220121C020FFF735
:102B500077FA0020D6490870D649087006F05CFA6A
:102B60000020CE490870084602F050FBCA480078A1
:102B7000002871D1C748007851286FD1C748007824
:102B8000002829D1C54841784078401CC34A50707C
:102B9000062904DB00201146487005F0D1FDBF482E
:102BA0004078022802D10320BC494870BB4805F098
:102BB000F7FDBB48007801280DD101220821002033
:102BC000FFF73EFA0120BA4908701420B94908708D
:102BD000B24805F0E3FF16E2B048007801281FD1A3
:102BE000012208210020FFF72BFA0120B0490870CC
:102BF0001420B04908700220A8490870084602F065
:102C000005FB0E21AE4802F09DF90320AC49487047
:102C1000052008726420C871084605F0BFFFF2E184
:102C20009E4800780228D6D100220121C020FFF75B
:102C300007FA00209E4908709E490870002208216A
:102C40001046FFF7FDF904F06FFF0120934908706B
:102C5000084602F0DBFAD6E1DBE1FFE78D480078B9
:102C6000012853D18D480078002815D000208B49C9
:102C700008708B480078012844D1012208210020E7
:102C8000FFF7DEF901208A4908701420894908708D
:102C9000824805F083FF35E081480078002811D193
:102CA00001207F490870012208210020FFF7C8F9A0
:102CB00001207F49087014207E490870774805F08C
:102CC0006DFF1FE001207549087000220121C0201E
:102CD000FFF7B6F90020764908707649087000229F
:102CE00008211046FFF7ACF904F01EFF0022012175
:102CF000C020FFF7A5F900206D4908706D490870E4
:102D000005F01EFD654802F081FA7CE1614800781B
:102D100011287DD16148007800289CD15F48407817
:102D2000002810D15D4881888088401C5B4A9080D3
:102D3000FF206930814202DB00201146888057481D
:102D400005F00CFF63E05548407801280CD153484A
:102D5000807964285BDA51488079401C4F4988713A
:102D6000084605F0BBFF52E04C484078032816D1D6
:102D70004A48007A38284ADA4848007A401C4749CD
:102D80000872084605F08EFE01204E4908704E4834
:102D900000894E4908814C48C088C88037E03F48C8
:102DA000407804280ED13D48417A407A401C3B4A85
:102DB0005072022902DB002011464872374805F0A4
:102DC00069FF24E03548407805280ED13348817AE0
:102DD000807A401C314A9072022902DB00201146A1
:102DE00088722E4805F056FF11E02C4840780628DE
:102DF0000DD12A48C17AC07A401C284AD0720229D3
:102E000002DB00201146C872244805F043FF00E0B1
:102E100012E02348007801280DD10122082100206A
:102E2000FFF70EF90120224908701420214908708B
:102E30001A4805F0B3FEE6E016480078212875D15F
:102E4000164800780028F6D11448407800280FD1A1
:102E5000124881888088401E104A9080002903DC37
:102E6000FF206930114688800C4805F077FE83E02A
:102E70000A48407801282BD10848807901287BDD59
:102E800006488079401E05498871084605F026FFEE
:102E900072E00000140000205000002034010020E7
:102EA000510000203D0000203C0000207A0000205E
:102EB0004500002046000020860000203B00002046
:102EC000600100205C00002042010020560100202B
:102ED00052484078032816D15048007A20284BDD0C
:102EE0004E48007A401E4D490872084605F0DAFD4A
:102EF00001204B4908704B4800894B4908814948DB
:102F0000C088C88038E04548407804280FD143483D
:102F1000417A407A401E414A5072002902DC022068
:102F2000114648723D4805F0B5FE25E02CE03B48CF
:102F3000407805280ED13948817A807A401E374A78
:102F40009072002902DC022011468872334805F095
:102F5000A1FE11E03148407806280DD12F48C17AF2
:102F6000C07A401E2D4AD072002902DC0220114690
:102F7000C8722A4805F08EFE2C480078012842D1FC
:102F8000264805F00BFE3EE02948007831281BD189
:102F900022480078002836D12048C079642807DA12
:102FA0001E48C079401C1D49C871084605F07CFCCC
:102FB0001E480078012826D118484078042822DAD3
:102FC000164805F0EBFD1EE01948007841281AD19B
:102FD00012480078002816D11048C079012807DD72
:102FE0000E48C079401E0D49C871084605F05CFCCA
:102FF0000E480078012806D108484078042802DAF3
:10300000064805F0CBFD0B480078002801D104F0FC
:1030100091FD00200649087000BF8FE534010020B3
:103020005C000020420100205601002051000020D9
:10303000140000205000002070B504460D462946BB
:10304000B031C8B206F078F9F021214009110846E4
:10305000103006F071F92107090F012211430846CB
:1030600006F06AF970BD0000F7B50E461546002758
:1030700031460098FFF7E0FF002409E06901104A9B
:103080008918085D06F06BF9781CC7B2601CC4B2E1
:10309000102CF3DB701CC1B20098FFF7CDFF0024A9
:1030A0000BE06900491C0901054A8918085D06F012
:1030B00056F9781CC7B2601CC4B2102CF1DBFEBDFF
:1030C0000E9F0000F8B506460D46174600200090FA
:1030D000002438462038C0B200907F2E02DD002642
:1030E000A81CC5B229463046FFF7A6FF002408E019
:1030F0000099090109190E4A505C06F030F9601C6C
:10310000C4B2082CF4DB681CC1B23046FFF794FF50
:10311000002409E00099090109190831044A505CAA
:1031200006F01DF9601CC4B2082CF3DBF8BD0000EA
:103130001E990000F7B584B007460020039006985A
:1031400003F0C8FA064600242DE0301B401EC1B231
:103150000A2003F059FF014601900698FDF74BF84D
:103160000A210290FDF747F80D46039800280ED17A
:10317000701EA0420BDD002D07D1E100C919C8B2B5
:1031800020220599FFF79EFF0BE0012003902946BE
:103190003031CAB2E100C919C8B20599FFF792FFF0
:1031A00000BF601CC4B2B442CFDB304607B0F0BDF4
:1031B000F8B504460F46154600260EE0AA5D3946CE
:1031C0002046FFF77FFF20460830C4B2782C02DD8E
:1031D0000024B81CC7B2701CC6B2A85D0028EDD18F
:1031E000F8BD000010B500F05BFA012807D100F02F
:1031F000C5F92648006820210843244908600020BA
:1032000000F056FA012808D1002000F0C3F91F4849
:103210000068012108431D490860012000F048FAB8
:10322000012807D100F0B6F91848006802210843C8
:1032300016490860022000F03BFA012808D102205C
:1032400000F0A8F911480068042108430F490860FC
:10325000032000F02DFA012808D1032000F09AF98C
:103260000A4800680821084308490860042000F063
:103270001FFA012808D1042000F08CF903480068E7
:10328000102108430149086010BD0000040000201F
:1032900001460120044A526A120C12048BB21A43EE
:1032A000014B5A62002070474010004030B5024682
:1032B0000120130001F0AAF80504488CD0FDFC00A1
:1032C000AD4B1B694024A3430C78A40140252C403E
:1032D0002343A94C236123461B692024A3434C7834
:1032E000640120252C402343A34C236123461B6902
:1032F0001024A3438C78240110252C4023439E4C9A
:10330000236123461B690824A343CC78E4000825E5
:103310002C402343984C236123461B690424A34378
:103320000C79A40004252C402343934C23612346AD
:103330001B690224A3434C79640002252C402343DB
:103340008D4C2361002014E18B4B5B694024A34327
:103350000C78A40140252C402343874C636123460D
:103360005B692024A3434C78640120252C4023432F
:10337000814C636123465B691024A3438C7824014C
:1033800010252C4023437C4C636123465B69082451
:10339000A343CC78E40008252C402343764C63619A
:1033A00023465B690424A3430C79A40004252C4024
:1033B0002343714C636123465B690224A3434C7928
:1033C000640002252C4023436B4C63610020D0E055
:1033D000694B9B694024A3430C78A40140252C40F1
:1033E0002343654CA36123469B692024A3434C7867
:1033F000640120252C4023435F4CA36123469B6935
:103400001024A3438C78240110252C4023435A4CCC
:10341000A36123469B690824A343CC78E4000825D4
:103420002C402343544CA36123469B690424A343AB
:103430000C79A40004252C4023434F4CA361234660
:103440009B690224A3434C79640002252C4023434A
:10345000494CA36100208CE0474BDB694024A34327
:103460000C78A40140252C402343434CE3612346C0
:10347000DB692024A3434C78640120252C4023439E
:103480003D4CE3612346DB691024A3438C7824017F
:1034900010252C402343384CE3612346DB69082484
:1034A000A343CC78E40008252C402343324C01E0B0
:1034B0005DE018E0E3612346DB690424A3430C7953
:1034C000A40004252C4023432B4CE3612346DB69F5
:1034D0000224A3434C79640002252C402343264C4C
:1034E000E361002045E0244B1B6A4024A3430C7891
:1034F000A40140252C4023431F4C236223461B6A12
:103500002024A3434C78640120252C4023431A4CEB
:10351000236223461B6A1024A3438C7824011025C0
:103520002C402343144C236223461B6A0824A343E4
:10353000CC78E40008252C4023430F4C236223461B
:103540001B6A0424A3430C79A40004252C402343C4
:10355000094C236223461B6A0224A3434C7964006E
:1035600002252C402343044C2362002001E001206B
:1035700000BF00BF30BD0000001000400120044922
:10358000C96880229143024AD16000207047000040
:103590000010004000B5014601200B0000F036FF8E
:1035A00005040C141C242C00154AD2685208520041
:1035B000134BDA60002021E0114AD26802239A43BB
:1035C0000F4BDA60002019E00D4AD26804239A43B9
:1035D0000B4BDA60002011E0094AD26808239A43B5
:1035E000074BDA60002009E0054AD26810239A43AD
:1035F000034BDA60002001E0012000BF00BF00BDE6
:103600000010004010B502460120130000F0FEFE3D
:1036100005040E18222C36001A4B1B691B0C1B04C8
:103620008CB22343174C2361002029E0154B5B69C2
:103630001B0C1B048CB22343124C636100201FE05F
:10364000104B9B691B0C1B048CB223430D4CA361D4
:10365000002015E00B4BDB691B0C1B048CB22343D1
:10366000084CE36100200BE0064B1B6A1B0C1B049B
:103670008CB22343034C2362002001E0012000BFF1
:1036800000BF10BD4010004001200449896A8143F9
:10369000491C024A9162002070470000401000401F
:1036A0000020024909680906C80F70470010004051
:1036B00000B5014600200B0000F0A8FE0504090E2D
:1036C00013181D000E4A1268D007C00F15E00C4AEF
:1036D00012689207D00F10E0094A12685207D00F03
:1036E0000BE0074A12681207D00F06E0044A12687E
:1036F000D206D00F01E0002000BF00BF00BD0000D7
:103700000010004010B5044603480068002802D0AD
:1037100001480068804710BDBC00002010B501467C
:103720000120134A526880239A430B78DB018024DE
:1037300023401A430E4B5A601A46526840239A435C
:103740004B789B01402423401A43094B5A601A4688
:1037500052680E239A438B785B000E2423401A4351
:10376000034B5A60034B4A681A60002010BD0000EA
:1037700000100040BC0000200120044909684022DC
:1037800091434031014A1160002070470010004011
:1037900010B50446002C07D10748006800280AD05D
:1037A00005480068804706E004480068002802D009
:1037B00002480068804710BDC8000020CC000020EF
:1037C00010B50246002A55D1564B186018460068BD
:1037D000102398430B781B01102423401843514BAE
:1037E000186018460068082398438B78DB0008248B
:1037F000234018434B4B1860184600680423984335
:10380000CB789B00042423401843464B186048782B
:10381000032806DD18460068802398438030414B1A
:103820001860404800684B789B079B0F18433D4B3E
:103830001860002098601846006840239843403084
:10384000384B18600879012807D11846006904230D
:103850009843001D334B186105E03248006904238A
:103860009843304B18618868002859D02E4B8868DF
:10387000186055E000202D4B186018460068102392
:1038800098430B781B01102423401843274B1860E2
:1038900018460068082398438B78DB0008242340EF
:1038A0001843224B18601846006804239843CB78CD
:1038B0009B000424234018431C4B186048780328BD
:1038C00006DD18460068802398438030174B186047
:1038D000164800684B789B079B0F1843134B1860E2
:1038E00000209860184600684023984340300F4BF2
:1038F00018600879012807D1184600690423984305
:10390000001D0A4B186105E008480069042398432C
:10391000064B1861C868002802D0054BC8681860BB
:10392000002010BD00080040C800002000480040F2
:10393000CC0000201CB50521684601F003FB0020E7
:10394000694608706A4605214020FEF793FA012275
:1039500005214020FEF73EFB6A460F210020FEF7BE
:1039600089FA01220F210020FEF734FB6A46032169
:103970004020FEF77FFA012203214020FEF72AFBB8
:103980001CBD000003460A462849002B26D106E04C
:10399000274880684007C00F002800D002E0481E7A
:1039A000011EF5D100BF002901D109207047204830
:1039B000C2601E4906E01E4880688007C00F0028CC
:1039C00000D002E0481E011EF5D100BF002901D140
:1039D0000920EBE71648C068C2B225E006E01548AA
:1039E00080684007C00F002800D002E0481E011E7A
:1039F000F5D100BF002901D10920D7E70D48C260E9
:103A00000A4906E00B4880688007C00F002800D0F4
:103A100002E0481E011EF5D100BF002901D1092096
:103A2000C4E70448C068C2B20020BFE7FFFF00003F
:103A30000008004000480040002802D1024A5160BE
:103A400001E0024A51607047000800400048004011
:103A500070B5044600252078030000F0D7FC05046B
:103A6000050C10181C0018E0032000F007FB0320D1
:103A700000F0CEFA11E0032000F090FA0DE00321EF
:103A8000084600F009FB032000F0D2FA05E0072009
:103A900000F006FA01E0042500BF00BF20780121F4
:103AA00000F00CF8207800F0D3FA607800F0CCF940
:103AB000A07800F0DFF9284670BD000070B505461B
:103AC0000C46002600F096FC002C01D0012000E0FE
:103AD000002004462B0000F099FC050417394D74B2
:103AE00088004448006840084000E107C90F0843C7
:103AF0004049086000BF002C05D03E48C068000562
:103B0000C00F0028F7D072E03B48C0684008400072
:103B1000401C3949C8600846C06802218843801C9F
:103B20003549C86033480068022188436100022299
:103B3000114008432F49086000BF002C05D02D48D4
:103B400000694006C00F0028F7D050E029480068FF
:103B500004218843A100042211400843254908603C
:103B600000BF002C05D023484069C004C00F0028C6
:103B7000F7D03CE020484038C068012189038843E1
:103B800040181D494039C8600846C0680121C90372
:103B90008843401818494039C86016480068082111
:103BA0008843E1000822114008431249086000BF21
:103BB000002C05D00F4880694006C00F0028F7D0C0
:103BC00015E00C48006810218843210110221140A3
:103BD00008430849086000BF002C05D00548C06BA9
:103BE0004003C00F0028F7D001E0042600BF00BF4B
:103BF000304670BD00200040C00D024030B589B095
:103C000000241422564904A8FCF7ACFA5448143096
:103C100000680390002000900190029051480188B4
:103C2000684601814F4841886846C1804D48818877
:103C3000684681804B48C1886846418049482030A9
:103C4000018868460180484800680006450F2B003F
:103C500000F0DCFB05042E303E4178004248C0688D
:103C60004005400D69460989884201D1089C1EE043
:103C70003D48C0684005400D6946C988884201D169
:103C8000079C14E03848C0684005400D69468988A3
:103C9000884201D1069C0AE03348C0684005400DC7
:103CA00069464988884201D1059C00E0049C4BE0AC
:103CB0002E4C49E0684600882B4949698905890DE1
:103CC000884202D16846C48901E0684684893BE0A5
:103CD0000124E40338E02448C06B8007800F0328E8
:103CE00029D1684600892049C9684905490D88429B
:103CF00001D1089C20E06846C0881B49C968490575
:103D0000490D884201D1079C16E068468088164913
:103D1000C9684905490D884201D1069C0CE06846F6
:103D200040881149C9684905490D884201D1059C5F
:103D300002E0049C00E00D4C0B48C06BC005000F76
:103D4000444301E0002400BF00BF0748006840056D
:103D5000410F2046C8400446204609B030BD00004F
:103D600080AA0000000C1000002000400048E8017C
:103D700070B505460C46002600F03CFB002C01D037
:103D8000012000E0002004462B0000F03FFB070567
:103D9000121D28333E4956002A4800680121C903F4
:103DA0008843E1030122D2031140084325490860FA
:103DB00045E0244840680221884361000222114006
:103DC0000843204948603AE01E484068042188437F
:103DD000A1000422114008431A4948602FE0194805
:103DE000406808218843E100082211400843154932
:103DF000486024E013484068202188436101202264
:103E0000114008430F49486019E00E4840684021BE
:103E10008843A1014022114008430A4948600EE04E
:103E200008484068FF21013188432102FF22013206
:103E3000114008430349486001E0042600BF00BF69
:103E4000304670BD0020004070B50446002500F0EB
:103E5000D1FA074800680721090288432102072296
:103E600012021140084302490860284670BD000054
:103E70000020004070B50446002500F0BBFA07485A
:103E800000680321C9028843E1020322D2021140E3
:103E9000084302490860284670BD00000020004029
:103EA00010B501460020064AD26B0723DB039A4374
:103EB000CB030724E40323401A43014BDA6310BD0C
:103EC0000020004010B502460020002901D0012347
:103ED00000E000231946002907D0084B1B6A012483
:103EE00094402343054C236206E0044B1B6A0124E3
:103EF0009440A343014C236210BD00000020004009
:103F000010B5014600200B0000F080FA0504101CDB
:103F1000283440001F4B1B895A05520D1E4BDB688D
:103F2000DB0ADB0213431C4CE36031E0194BDB88F6
:103F30005A05520D184BDB68DB0ADB021343164CA3
:103F4000E36025E0134B9B885A05520D124BDB684A
:103F5000DB0ADB021343104CE36019E00D4B5B8876
:103F60005A05520D0C4BDB68DB0ADB0213430A4C8B
:103F7000E3600DE0074B1B885A05520D064BDB68CA
:103F8000DB0ADB021343044CE36001E0042000BFC2
:103F900000BF10BD000C10000020004010B501460D
:103FA0000020064A526903239B029A438B02032492
:103FB000A40223401A43014B5A6110BD0020004067
:103FC00010B501460020002902D0012918D10BE0CC
:103FD0000D4B5B889A05920D0C4B5B699B0A9B020B
:103FE00013430A4C63610DE0074B1B889A05920D41
:103FF000064B5B699B0A9B021343044C636101E01F
:10400000042000BF00BF10BD200C100000200040A5
:1040100010B501460020054A126930239A430B016E
:10402000302423401A43014B1A6110BD0020004088
:1040300010B501460020054A926930239A430B01CE
:10404000302423401A43014B9A6110BD00200040E8
:1040500070B504460025264600F0CCF906480068F5
:10406000E02188437101E0221140084302490860C1
:1040700000F02CF8284670BD0020004001460020CA
:10408000044A1269920892008B079B0F1A43014B56
:104090001A6170470020004030B5024600200A4BEC
:1040A0009B690C24A34394000C252C402343064C0D
:1040B000A36123469B699B089B008C07A40F2343A5
:1040C000014CA36130BD00000020004010B5FFF797
:1040D00095FD0149086010BD0000002010B507499A
:1040E00009894805400D0649C968C90AC902014342
:1040F000034AD160FFF7EAFF10BD0000000C10007A
:104100000020004010B50446002C04D0012C0AD039
:10411000022C18D10FE00D480068002802D00B488F
:104120000068804710E00A480068002802D008486C
:104130000068804708E007480068002802D005486A
:104140000068804700E000BF00BF10BDD80000201D
:10415000DC000020E000002010B502460020002115
:1041600000BF0BE01C234B43064CE358934203D1A2
:104170001C234B43181903E04B1CD9B20229F1D37D
:1041800000BF10BDEC00002070B506460D460024AF
:104190003046FFF7E1FF0446002C01D1042070BD3A
:1041A0002B0000F033F905040B121920270060687A
:1041B000406920218843616848611CE0606840696B
:1041C000400840006168486115E06068406902216C
:1041D0008843616848610EE0606840691021884347
:1041E0006168486107E0606840690421884361684C
:1041F000486100E000BF00BF0020D0E770B5054671
:1042000000242846FFF7A8FF0446002C00D170BD0B
:10421000606800694007C00F002809D004212846C3
:10422000FFF7B2FFE068002801D0E0688047EEE7C2
:1042300060680069C006C00F002809D00321284625
:10424000FFF7A2FFA069002801D0A0698047DEE740
:10425000606800698006C00F002808D00021284649
:10426000FFF792FF6069002801D0606980476068AD
:104270000069C007C00F002808D001212846FFF7B9
:1042800083FF2069002801D02069804760680069A9
:104290008007C00F002808D002212846FFF774FFCE
:1042A000A068002801D0A068804700BFAFE70000E9
:1042B00010B5084840680006C00F002808D000F07C
:1042C0000DF805480068002802D0034800688047C0
:1042D00010BD0000800F0040E800002001201E21DA
:1042E000024A1160E121116000207047800F0040F8
:1042F000F8B507460D46164600210846FFF79CFB19
:10430000002405E0295D0020FFF73CFB601CC4B2DF
:10431000B442F7DB01210020FFF78EFBF8BD00005F
:1043200030B50446D007C00F002814D0002B09D0A8
:104330002F482018006B01258D4028432C4D65190E
:10434000286308E02A482018006B01258D40A84307
:10435000274D6519286302201040002814D0002B37
:1043600009D023482018406B01258D402843204D5B
:104370006519686308E01E482018406B01258D40D0
:10438000A8431B4D6519686304201040002814D011
:10439000002B09D016482018806B01258D4028433A
:1043A000134D6519A86308E011482018806B01259A
:1043B0008D40A8430E4D6519A863082010400028C1
:1043C00014D0002B09D00A482018C06B01258D405D
:1043D0002843074D6519E86308E005482018C06BBD
:1043E00001258D40A843024D6519E863002030BDCA
:1043F000000D024002480349886003488860704706
:104400005A5A000000200040A5A5000030B47446B0
:10441000641E2578641CAB4204D3635D5B00E31823
:1044200030BC18471D46F8E710B5002819DB1A4ABA
:1044300003231B02D21883089B00D2588307DC0E8B
:10444000FF23A3409A438B071B0E8407E40EA3406F
:104450001A43114B032424021B198408A4001A5187
:1044600018E00E4A03071B0F083B9B089B00D2581D
:104470008307DC0EFF23A3409A438B071B0E8407A0
:10448000E40EA3401A43054B0407240F083CA4087C
:10449000A4001A5110BD000000E100E01CED00E096
:1044A00000BF70471CB504460521684600F04AFD70
:1044B000022C02D0052C1AD10CE002210020FDF7BD
:1044C00093FD0120694608706A4602210020FDF72D
:1044D000D1FC0CE002210020FDF786FD0120694699
:1044E00008706A4602210020FDF7C4FC00BF00BF2F
:1044F0001CBD000010B501211020FFF7E3FC0028CF
:1045000001D0012010BDFDF721F80A4800684008DD
:104510004000401C074908600846006802218843A3
:10452000801C04490860012000F01CFDFDF704F820
:104530000020E7E70024004010B514480078002868
:1045400003D11D2002F0FEF811E010480078012888
:1045500007D10F480078002809D1052002F0F2F8B1
:1045600005E00A480078082801DC02F055F9074800
:104570000078092803DB00200449087004E00348A0
:104580000078401C0149087010BD00007A0000202E
:1045900072000020F8B5FF270020009000260025BB
:1045A00000F046FB4448007801287DDD4248007851
:1045B000092879DC4148007800287CD04048006810
:1045C000C1B23D480078C01E3E4A11543A480078B6
:1045D00009286DD10CE03B48445DBC4200DC274615
:1045E0000098844200DB0094301986B2681CC5B282
:1045F000082DF0DB07213046FBF707FE3049086045
:1046000031480078002807D02F48007800284FD084
:104610002E48007800284BD029480068502802D343
:1046200003F0B0FF44E026480068462812D328482B
:10463000007800280ED12748274908600120244926
:10464000087008210020FDF7BBFC002830D004F0E2
:10465000CBF82DE01A4800683C2829D81C4800787F
:10466000002825D002F076F908210020FDF7A8FCEB
:1046700000281DD01949088802F03CF81749088025
:10468000488802F037F815494880888802F032F8E7
:1046900012498880C88802F02DF81049C88008891E
:1046A00002F028F80D4900E005E0088104F09CF8CC
:1046B000002002490870F8BD7A0000203D0000206B
:1046C0009C0000207B0000205000002037000020CC
:1046D00078000020CDCC4C3F740000204201002027
:1046E00010B504460F218020FDF740FB002800D0C4
:1046F00010BD204600F002F800BFF9E7F0B58DB01C
:10470000044600200B900A900821FDF759FC002870
:104710007ED090480078002833D08F484078042815
:104720000FD08D484078052803D18B48807A022825
:1047300007D189484078062813D18748807A022813
:104740000FD12068FCF78AFB02460B4609910890BE
:1047500082488349FBF7EAFF0546FBF7FDFD0A9017
:10476000DEE02068FCF77AFB02460B4609910890D0
:104770007C487D49FBF7DAFF0546FBF7EDFD0A9023
:10478000CEE07A480088002825D078490888FCF7D0
:1047900083FC77490190FCF78BFB0746FCF75EFB37
:1047A000744A754B03910290FCF734FA0546734A3C
:1047B000734BFCF72FFA079106900B98FCF74EFB12
:1047C00005910490079B069AFBF780FF09910890DA
:1047D000FBF7C2FD0B9065484088002827D063494D
:1047E0004888FCF759FC62490190FCF761FB0746D9
:1047F000FCF734FB634A644B03910290FCF70AFA1E
:1048000005465E4A5E4BFCF705FA0791069000E00C
:104810009EE00B98FCF722FB05910490079B069AFB
:10482000FBF754FF09910890FBF796FD0B904F485A
:104830008088002826D04D498888FCF72DFC4C49FB
:104840000190FCF735FB0746FCF708FB4B4A524248
:104850004E4B03910290FCF7DDF905464C4A4D4B57
:10486000FCF7D8F9079106900B98FCF7F7FA059139
:104870000490079B069AFBF729FF09910890FBF724
:104880006BFD0B903948C08800281FD03749C88875
:10489000FCF702FC36490390FCF70AFB0746FCF7DD
:1048A000DDFA3D4A3D4B05910490FCF7B3F90991BF
:1048B00008900B98FCF7D2FA07910690099B089A8A
:1048C000FBF704FF0546FBF747FD0B9027480089DF
:1048D000002820D025490889FCF7DEFB24490390F5
:1048E000FCF7E6FA0746FCF7B9FA2D4A2D4B05917D
:1048F0000490FCF78FF905460E460B98FCF7AEFACC
:104900002A46334607910690FBF7E0FE099108908E
:10491000FBF722FD0B9021680B98FCF7C9FA0A906F
:104920000A98FCF79BFA204A204B05910490FCF76B
:1049300071F9099108902068FCF790FA07910690A8
:10494000099B089AFBF7C2FE0546FBF705FD2060B0
:104950000DB0F0BDB000002034010020E6D022DB15
:10496000F97E214092B3B0A71DDE1740420100201E
:1049700000009644F6285C8FC2F5F03F48E17A14B7
:10498000AE471040A4703D0AD7A3F03F51B8FA3F9C
:10499000C3F5285C8FC20F40713D0AD7A370234036
:1049A0002B8716D9CE7722407B14AE47E17AB43FED
:1049B00010B504466A480078042800D110BD062CC2
:1049C00000DD06242300FFF721FD07051B31475DAD
:1049D00073899E000B2200215E20FEF745FB0C220E
:1049E00000216E20FEF740FB5E480078002806D0CC
:1049F0005D480078002802D0002000F0BDF882E079
:104A00000D2200215E20FEF72FFB0E2200216E20DA
:104A1000FEF72AFB53480078002806D05248007859
:104A2000002802D0002000F0A7F86CE00F2200213F
:104A30005E20FEF719FB102200216E20FEF714FB0A
:104A400048480078002806D047480078002802D05F
:104A5000002000F091F856E0112200215E20FEF7C0
:104A600003FB122200216E20FEF7FEFA3D4800787B
:104A7000002806D03C480078002802D0002000F032
:104A80007BF840E0132200215E20FEF7EDFA1422AD
:104A900000216E20FEF7E8FA32480078002806D0A0
:104AA00031480078002802D0002000F065F82AE0A4
:104AB000152200215E20FEF7D7FA162200216E2073
:104AC000FEF7D2FA27480078002806D0264800785A
:104AD000002802D0002000F04FF814E01722002137
:104AE0005E20FEF7C1FA182200216E20FEF7BCFA04
:104AF0001C480078002805D01B480078002801D009
:104B000002F0DAFA00BF00BF17480078002811D081
:104B10001648007800280DD10120144908701A2287
:104B200000213E20FEF7A0FA1B2200214E20FEF7B6
:104B30009BFA12E00C48007800280ED10B48007850
:104B400000280AD007480078002806D107490870D5
:104B500007A200213E20FEF72BFB00BF2EE700003E
:104B600034010020500000203700002052000020B7
:104B7000202020200000000070B50446002C19D130
:104B8000202200210820FEF79DFA2022002110207B
:104B9000FEF798FA202200211820FEF793FA20222F
:104BA00000211046FEF78EFA202200212820FEF771
:104BB00089FA2CE0642C10D0202200210820FEF776
:104BC00081FA0A212046FBF720FB3030C5B22A4685
:104BD00000211020FEF776FA09E03122002108209A
:104BE000FEF770FA302200211020FEF76BFA0A213E
:104BF0002046FBF70AFB3031CDB22A4600211820AF
:104C0000FEF760FA192200212020FEF72DFA70BD70
:104C100004480078002804D002480078401E01496A
:104C2000087070477200002010B5029C10BD000093
:104C300010B51848007800282AD0002015490870BF
:104C400015480078002807D00F218020FDF78EF846
:104C5000002801D11049087010480078002817D1A9
:104C60000D480078002813D10D480078062802DD91
:104C700006200B4908700A4804780A48006803F0C7
:104C800045F807480078A04202D001200649087084
:104C900010BD00003C00002038000020370000203C
:104CA00040000020A00000204100002010B50F218E
:104CB0008020FDF75BF800284CD0284800780028B9
:104CC00048D00420FFF71CF9002025490870012076
:104CD0002449087000220121C020FDF7B1F900200D
:104CE0002149087021490870002208211046FDF76B
:104CF000A7F903F025FD1E480078022188431C49CE
:104D0000087000201B4908801B480078800880003C
:104D100019490870002019490870194908700220C3
:104D200018490870032018490870002017490870B6
:104D300002F0B6FC09480078002802D101200F4992
:104D40000870114800F062FA00201149087002F062
:104D5000F1FE01E003F074FC10BD000037000020FC
:104D60005100002050000020450000204600002097
:104D7000150000201E0000201C0000204300002021
:104D8000520000204200002034010020400000209A
:104D90006900002038B505461648009000241648E2
:104DA0000078002822D015480078401CC0B2134972
:104DB00008700C2816DD002008700BE0A000104AD7
:104DC0001158009804F008FC03D2A0000C490858C0
:104DD0000090641C0A2CF1DB6846FFF781FC009808
:104DE000286006E000200749087002E02846FFF727
:104DF00077FC38BD0000A040B00000207300002008
:104E0000700100203C00002070B50020124908709D
:104E100004F092FA102004F08FFA002418E02146E2
:104E2000B031C8B204F088FA002004F085FA1020EE
:104E300004F082FA002504E0002004F090FA681CD7
:104E4000C5B2802DF8DB002004F089FA601CC4B2E2
:104E5000082CE4DB70BD0000520000200020024955
:104E6000087002490870704743000020420000208B
:104E7000F8B52D480078002855D02C4840780328F4
:104E80004ED12B480078401CC0B22949087029280F
:104E900036DA08460078FCF7FFF80746254801682F
:104EA000384604F041FB064623490889FCF7F4F82C
:104EB0003146009004F0C8FA0546FCF7A9F884B220
:104EC0002146022004F0EEF919480078FCF7E4F8D6
:104ED00007461A480168384604F026FB064616497C
:104EE000C888FCF7D9F83146009004F0ADFA0546C1
:104EF000FCF78EF884B22146032004F0D3F912E0C7
:104F00000020094908700A4908700D4801890220EB
:104F100004F0C8F90A48C188032004F0C3F902E08C
:104F2000002001490870F8BD5C0000203401002019
:104F30005D00002064000020560100206000002079
:104F40004C01002010B50A460146002900D110BDD1
:104F500002E000230B70491C1346521E002BF8D1AF
:104F600000BFF4E770B505461148124948610020BA
:104F70008861052008610FE000200E4988610E4914
:104F80000E480068FBF737F9012109060C1A00BF2B
:104F900008488069A042FBD828466D1E0028EBD146
:104FA00004480069400840000249086170BD0000E3
:104FB000FFFFFF0000E000E01027000000000020DD
:104FC00070B50546114812494861002088610520E6
:104FD000086110E000200E4988617D21C9000D485C
:104FE0000068FBF708F9012109060C1A00BF084800
:104FF0008069A042FBD828466D1E0028EAD10448EB
:105000000069400840000249086170BDFFFFFF00D1
:1050100000E000E00000002010B504462300FFF788
:10502000F5F90B0710171E252C353E4D6D8DA2008E
:10503000FFF7EAFE0423604A1946202001F0D0FF62
:1050400091E004235D4A1946202001F0C9FF8AE05F
:1050500004235B4A1946202001F0C2FF83E00423A9
:10506000584A1946202001F0BBFF7CE00423564A31
:105070001946202001F0B4FF75E0FFF7C5FE0423B8
:10508000524A1946202001F0ABFF6CE0FFF7BCFE4E
:1050900004234F4A1946202001F0A2FF63E0FFF7E6
:1050A000B3FE06234B4A0221102001F099FF022390
:1050B000494A0421102001F093FF54E0FFF7A4FEB9
:1050C0000723464A0221102001F08AFF0223424AA8
:1050D0000421102001F084FF04233C4A19463020AB
:1050E00001F07EFF05233E4A0621102001F078FFE3
:1050F0003CA206216020FEF75BF834E0FFF784FE57
:105100000723394A0221102001F06AFF0223324AA4
:105110000421102001F064FF04232D4A1946302099
:1051200001F05EFF05232E4A0621102001F058FFF2
:105130002EA206216020FEF73BF814E0FFF764FE84
:1051400006232B4A0221102001F04AFF0223224AA3
:105150000421102001F044FF0423264A1946302080
:1051600001F03EFF00BF00BF0F218020FCF7FEFDD5
:10517000002820D02048007800281CD01F48007844
:10518000002815D0FF2C01D0072C14D11C48007822
:10519000002806D005231B4A0021102001F020FF23
:1051A00009E00523184A0021102001F019FF02E050
:1051B00000201349087010BD8EA9000092A90000BC
:1051C00096A900009AA900009EA90000A2A90000CB
:1051D000A6A90000BEA90000C4A90000B0A9000053
:1051E000C8A900003A6D4100B7A900003A75410016
:1051F000AAA90000D7A90000440000203700002021
:1052000082000020CDA90000D2A9000010B50446FC
:10521000FFF7FAFDA078FFF7CBFB03F075FC2078D1
:1052200000284FD1627852003E4BD21851786278F4
:105230005200985C5C22FDF745FF002211460820D1
:10524000FDF712FF204603F089FC0122022108200D
:10525000FDF70AFF204603F041FD02220421082049
:10526000FDF702FF204603F01FFB03220621082062
:10527000FDF7FAFE204603F015FC042202215E2011
:10528000FDF7F2FE607AC01DC2B202216E20FDF76A
:10529000EBFE052204215E20FDF7E6FEA07AC01D8C
:1052A000C2B204216E20FDF7DFFE062211465E2009
:1052B000FDF7DAFEE07AC01DC2B206216E20FDF7CE
:1052C000D3FE2CE02078012814D1642020730A2218
:1052D00002213820FDF7C8FE13A204210820FDF7A3
:1052E00067FF13A206210820FDF762FF204603F0A6
:1052F000F8F814E0207802280DD10A220221382083
:10530000FDF7B2FE0DA204213020FDF751FF20462B
:1053100003F0DCFB03E02078032800D110BD00BFC0
:10532000FCE7000010990000202020202000000051
:10533000202020202020202020202020202020206D
:105340000000000010B5FDF77DFB02F0F3FB10BD7F
:1053500010B5CF48007804287CD1CE48408800287A
:1053600079D0CC484088401E80B2CA494880002885
:1053700071D1084600780300FFF748F80C8507084C
:10538000192A3F526E6F777F83848AE0C148007884
:10539000401CC0490870C82048807820BC498880DB
:1053A000084603F0FBFB0120FFF736FE79E0B94821
:1053B0000078401CB7490870C8204880F020B449E4
:1053C0008880084603F0EAFB0220FFF725FE68E02C
:1053D000B0480078401CAF490870C82048800320BE
:1053E000FFF71AFE00F06CF93820A9490872032073
:1053F0004870084603F0D2FB53E0A6480078401CF2
:10540000A4490870C82048802020A1490872084695
:1054100003F0C4FB0420FFF7FFFD00F051F940E06A
:105420009C480078401C9B4908700020488000225E
:105430000121C020FCF704FE00209749087097491D
:105440000870002208211046FCF7FAFD0820FFF73B
:10545000E3FD26E01BE125E023E08E480078401CB8
:105460008C490870022048801BE08A480078401C64
:10547000884908700220488013E01E208549488032
:105480000FE00EE000BF83480078401C814908709F
:105490000720FFF7C1FD00207E4948808049087041
:1054A00000BFF4E07B4800780300FEF7AFFF0B0776
:1054B0000880804A80805C806C6D800077E00021ED
:1054C000C020FCF753FC00283AD10B214020FCF708
:1054D0004DFC002834D009210020FCF747FC0028AF
:1054E0002ED00A210020FCF741FC002828D00B21F7
:1054F0000020FCF73BFC002822D00C210020FCF708
:1055000035FC00281CD063480078401C61490870B5
:10551000C82048800020FFF77FFD6248006800F047
:10552000F1F864205A498871C87100208880487059
:10553000084603F033FB00205B4908705B490870A4
:1055400035E054484088BE2806D1002058490870EC
:1055500058490870584908704E484088642801D15D
:1055600000F0AEF823E04B480078401C4949087031
:10557000C82048800520FFF74FFD00204A490870E9
:105580004A49087013E012E000204C490880404965
:105590000870404948800871487108704249087095
:1055A0004249087002F052F802F0ECFF00BF00BF61
:1055B0003E48007800286AD036480078022866DB2A
:1055C00034480078062862DC38480078112816D163
:1055D00030484079401CC0B22E494871632801DD33
:1055E000632048712B4840790A2802DA0A202949A9
:1055F00048712848427902210820FDF79BFD2B487D
:105600000078212810D1234841794079401E214A51
:1056100050710A2902DC0A20114648711D4842795E
:1056200002210820FDF786FD20480078312816D198
:1056300018480079401CC0B216490871632801DD82
:1056400063200871134800790A2802DA0A201149F8
:1056500008711048027902216820FDF76BFD13489C
:105660000078412810D10B4801790079401E094A81
:1056700010710A2902DC0A201146087105480279D6
:1056800002216820FDF756FD00200849087010BD72
:105690003401002086000020450000204600002044
:1056A00037000020A000002015000020140000207A
:1056B0003D0000203C0000207A0000200A0000206D
:1056C00010B50A210E480068FAF795FD3030C4B2D3
:1056D000224600210846FDF7F5FC0A21084800682B
:1056E000FAF789FD0C463034224600210820FDF7E8
:1056F000E9FC5B2200211020FDF7E4FC10BD000056
:105700009C000020F8B504462046FBF781FC3030B1
:10571000C5B22A4600213220FDF7D4FC2E220021FA
:105720003A20FDF7CFFC1649204603F0FDFE074660
:10573000FBF76EFCC6B20A213046FAF766FD30313F
:10574000CDB22A4600213F20FDF7BCFC0D49204682
:1057500003F0EAFE0746FBF75BFC86B20A213046FF
:10576000FAF753FD3031CDB22A4600214720FDF72C
:10577000A9FC562200214F20FDF7A4FCF8BD000033
:10578000000020410000C8421148C068007811495B
:1057900008801148007800280CD00D484088401C33
:1057A00080B20B4948800988884210DB00200A49F2
:1057B00008700CE006484088002803D10120064903
:1057C000087004E002484088401E01494880704744
:1057D000A4010020B2000020B8000020F0B585B080
:1057E0001749498808460A30FBF74EFC0746154919
:1057F000FBF75EFB06461449C879FBF74DFC1349DD
:10580000009003F091FE07461149FBF751FB114947
:10581000019003F019FE1049029003F085FE314615
:10582000039003F081FE0546FBF7F2FB84B22146AC
:10583000032003F037FDFFF7A7FF05B0F0BD000020
:10584000A40100200000C842340100200000C04232
:1058500000401C460AD7233D0000964470B51B4803
:105860000068C088401C80B218490968C880FF21C0
:105870006931884203DB002014490968C8807F2011
:10588000C0051249096888601149C879FBF704FC12
:105890000646104903F048FE05460F49FBF708FB92
:1058A00004460E4903F0D0FD08490968C86007485E
:1058B000006801F06DF80548006803F02FF808480B
:1058C000C06800780749088070BD000048000020CB
:1058D000340100200000C04200401C460AD7233D8E
:1058E000A4010020B2000020F8B5002500BF3F4809
:1058F0004088401C80B23D4948800988884202DDCA
:1059000000203A494880394908884988C20F12184E
:10591000521091420ED1354820304078401CC1B21F
:105920003248203041708078814203DD00212F48C9
:10593000203041702D482030407840002C49085AD2
:105940002C490968C8807F20C0052A4909688860F9
:105950002949C879FBF7A0FB2849009003F0E4FD32
:1059600007462749FBF7A4FA0646264903F06CFDD3
:1059700020490968C8601D4885780146088849881B
:10598000C20F1218521091420BDC69006918642290
:10599000501AFBF779FB06461B49FBF789FA0446C8
:1059A0000CE029461E394A00891808460A30FBF7E0
:1059B0006BFB06461449FBF77BFA04460D49096860
:1059C000C868214603F0B0FD0A490968C860094863
:1059D000006800F0DDFF0748006802F09FFF034801
:1059E000C068007809490880F8BD0000A4010020C3
:1059F0000CAA000048000020340100200000C04232
:105A000000401C460AD7233D0000C842B2000020D7
:105A100038B5EA48C0680078E9490880E948007864
:105A2000002822D1E8480078002810D0E3484088B8
:105A3000401C81B2E148418000880A38814205DB80
:105A40000020E14908700120DE490870B5E1DB481B
:105A50004088002803D10120DB490870ADE1D74818
:105A60004088401ED5494880A7E1D64800780128E3
:105A700008D10A200346462205210090D148FCF7B0
:105A8000EFF89AE1CF480078022808D101200346B8
:105A9000282205210090CB48FCF7E2F88DE1C948A7
:105AA0000078032805D1C8222621C64801F046F90E
:105AB00083E1C4480078042808D105200346462223
:105AC00028210090BF48FCF7CBF876E1BD4800786C
:105AD000052808D1502064232D223C210090B9488C
